:100000000C9469000C9491000C9491000C94910054
:100010000C9491000C9491000C9491000C9491001C
:100020000C9491000C9491000C9491000C943E0758
:100030000C9491000C9491000C9491000C949100FC
:100040000C949C060C9491000C940C070C94E606FE
:100050000C9491000C9491000C9491000C949100DC
:100060000C9491000C9491000000010008004000E5
:1000700000010004050D00000000240027002A00F4
:1000800000000000250028002B00000000002300D5
:1000900026002900040404040404040402020202E9
:1000A000020203030303030301020408102040803B
:1000B00001020408102001020408102000000008BA
:1000C000000201000003040700000000000000001F
:1000D000770811241FBECFEFD8E0DEBFCDBF11E0FF
:1000E000A0E0B1E0E6EBF6E102C005900D92A63883
:1000F000B107D9F723E0A6E8B1E001C01D92A13312
:10010000B207E1F710E0C9E6D0E004C02197FE0194
:100110000E94450BC836D107C9F70E94EA080C9423
:10012000590B0C940000833081F028F4813099F051
:100130008230A1F008958730A9F08830B9F084307A
:10014000D1F4809180008F7D03C0809180008F77F3
:1001500080938000089584B58F7702C084B58F7D29
:1001600084BD08958091B0008F7703C08091B00066
:100170008F7D8093B0000895CF93DF93282F30E0D8
:10018000F901E454FF4F8491F901E855FF4FD491F0
:10019000F901EC56FF4FC491CC2391F081110E94DC
:1001A0009300EC2FF0E0EE0FFF1FE657FF4FA591F5
:1001B000B491EC91ED2381E090E021F480E002C065
:1001C00080E090E0DF91CF9108951F93CF93DF936C
:1001D000282F30E0F901E454FF4F8491F901E855EC
:1001E000FF4FD491F901EC56FF4FC491CC23C1F0DD
:1001F000162F81110E949300EC2FF0E0EE0FFF1FED
:10020000E058FF4FA591B4919FB7F894111104C025
:100210008C91D095D82302C0EC91DE2BDC939FBF4C
:10022000DF91CF911F910895CF93DF93FC0122813D
:1002300033812230310569F0EC01678D858D0E9494
:10024000E50060E08C8D0E94E50082E090E09B83F9
:100250008A83DF91CF910895CF93DF9390E0FC01E3
:10026000E855FF4F2491FC01EC56FF4F8491882301
:1002700061F190E0880F991FFC01EA58FF4FC5918A
:10028000D491FC01E058FF4FA591B491611109C0D0
:100290009FB7F8948881209582238883EC912E2340
:1002A0000BC0623061F49FB7F8948881322F30958B
:1002B00083238883EC912E2B2C939FBF06C08FB78E
:1002C000F894E8812E2B28838FBFDF91CF9108957A
:1002D0003FB7F8948091900190919101A091920183
:1002E000B091930126B5A89B05C02F3F19F0019648
:1002F000A11DB11D3FBFBA2FA92F982F8827820FAC
:10030000911DA11DB11DBC01CD0142E0660F771FFB
:10031000881F991F4A95D1F708958F929F92AF92A7
:10032000BF92CF92DF92EF92FF926B017C010E940D
:1003300068014B015C01C114D104E104F104F1F046
:100340000E946801DC01CB0188199909AA09BB093F
:10035000883E9340A105B10570F321E0C21AD1088F
:10036000E108F10888EE880E83E0981EA11CB11CFC
:10037000C114D104E104F10419F7DDCFFF90EF902F
:10038000DF90CF90BF90AF909F908F9008952FB740
:10039000F89460918C0170918D0180918E01909103
:1003A0008F012FBF0895CF92DF92EF92FF920F93AC
:1003B0001F93CF93DF936C017A018B01C0E0D0E0F3
:1003C000CE15DF0581F0D8016D918D01D601ED913B
:1003D000FC910190F081E02DC6010995892B11F067
:1003E0002196EECF7E01C701DF91CF911F910F9132
:1003F000FF90EF90DF90CF900895089580E090E017
:100400000895FC01538D448D252F30E0842F90E01A
:10041000821B930B541710F0CF96089501970895FF
:10042000FC01918D828D981761F0828DDF01A80FFC
:10043000B11D5D968C91928D9F5F9F73928F90E01E
:1004400008958FEF9FEF0895FC01918D828D98178D
:1004500031F0828DE80FF11D858D90E008958FEFCA
:100460009FEF0895FC01918D228D892F90E0805C93
:100470009F4F821B91098F739927089584E991E01A
:100480000E94320221E0892B09F420E0822F089596
:10049000FC01848DDF01A80FB11DA35ABF4F2C9121
:1004A000848D90E001968F739927848FA689B789F0
:1004B0002C93A089B1898C91837080648C93938DE7
:1004C000848D981306C00288F389E02D80818F7D8A
:1004D00080830895EF92FF920F931F93CF93DF9342
:1004E000EC0181E0888F9B8D8C8D981305C0E88985
:1004F000F989808185FD26C0F62E0B8D10E00F5FF7
:100500001F4F0F731127E02E8C8DE8120CC00FB611
:1005100007FCFACFE889F989808185FFF5CFCE0104
:100520000E944802F1CF8B8DFE01E80FF11DE35AC6
:10053000FF4FF0829FB7F8940B8FEA89FB89808187
:1005400080620AC09FB7F894EE89FF896083E889CA
:10055000F98980818370806480839FBF81E090E00F
:10056000DF91CF911F910F91FF90EF900895CF935E
:10057000DF93EC01888D8823C9F0EA89FB898081AB
:1005800085FD05C0A889B9898C9186FD0FC00FB67D
:1005900007FCF5CF808185FFF2CFA889B9898C91BE
:1005A00085FFEDCFCE010E944802E7CFDF91CF91CA
:1005B000089580E090E0892B29F00E943E0281118D
:1005C0000C9400000895862740E1849F9001112437
:1005D0002827622F70E0562F4427292F30E0242B44
:1005E000352BCB0144E0959587954A95E1F728276F
:1005F0003927CB0153E0880F991F5A95E1F78227DD
:10060000932708958CE308954F925F926F927F92A3
:100610008F929F92AF92BF92CF92DF92EF92FF9212
:100620000F931F93CF93DF934D3310F0512C1DC1C7
:10063000042F172FB62EEC01E881F9810484F5858B
:10064000E02D0995E881F9810288F389E02DCE013A
:100650000995582E882351F37E0129E7E20EF11CFB
:1006600077E0D72ED00E6D2D8FEF9FEF0E94E30223
:10067000ED2DF0E0A4E0F595E795AA95E1F7E45FAC
:10068000FE4F2081D7012C93ED2DEF70F0E0E45F59
:10069000FE4F2081FE01E658FF4F2083DA846D2D46
:1006A0000E94E302ED2DF0E0B4E0F595E795BA95F0
:1006B000E1F7E45FFE4F2081FE01E558FF4F208304
:1006C000ED2DEF70F0E0E45FFE4F2081FE01E45875
:1006D000FF4F2083DB846D2D0E94E302ED2DF0E0BF
:1006E00024E0F595E7952A95E1F7E45FFE4F208138
:1006F000FE01E358FF4F2083ED2DEF70F0E0E45F43
:10070000FE4F2081FE01E258FF4F2083DC846D2DD7
:100710000E94E302ED2DF0E034E0F595E7953A957F
:10072000E1F7E45FFE4F2081FE01E158FF4F208397
:10073000ED2DEF70F0E0E45FFE4F2081FE01E05808
:10074000FF4F2083DD846D2D0E94E302ED2DF0E04C
:1007500044E0F595E7954A95E1F7E45FFE4F208187
:10076000FE01EF57FF4F2083ED2DEF70F0E0E45FC7
:10077000FE4F2081FE01EE57FF4F20834701CB2C17
:10078000D12E10E05601A00EB11EB2E08B0E911CCE
:10079000AC14BD04F1F03601F60141906F01642DF7
:1007A0000E94E302E42DF0E064E0F595E7956A9598
:1007B000E1F7E45FFE4F2081D40118962C93D3011A
:1007C000EC91EF70F0E0E45FFE4F2081F4012187AF
:1007D000DCCF0B5F1F4F000F111F80959095D70145
:1007E000A00FB11FFC0134E0F695E7953A95E1F7CB
:1007F000EF70FF27E45FFE4F20812C93FC01EF7028
:10080000FF27E45FFE4F208111962C931197FC0186
:10081000EF2FFF27E295EF70E45FFE4F20811296E5
:100820002C931297E92FFF27EF70FF27E45FFE4F0D
:10083000808113968C93FE01E150FF4F045F00838B
:100840008A819B81039789F0E159F10910823196E1
:100850001082319610826F8D81E068278D8D0E9405
:10086000E50083E090E09B838A83852DDF91CF9123
:100870001F910F91FF90EF90DF90CF90BF90AF90BE
:100880009F908F907F906F905F904F900895EF9220
:10089000FF921F93CF93DF93FC012281338123309A
:1008A000310509F446C0EC0182819381049761F01F
:1008B000678D858D0E94E50060E08C8D0E94E500CB
:1008C00084E090E09B838A8388A1882381F110E0F3
:1008D0008FEF9FEF7E01FDE6EF0EF11CF701208107
:1008E000121740F4FE01E10FF11D61A50E94E30221
:1008F0001F5FF4CF883B904F39F088899989019622
:10090000998B888B19A212C08AA58E838BA58F83A1
:100910008CA588878DA589878D8181110CC09E81CA
:100920008C81981741F08E818F3F29F018A289A100
:100930000AC080E008C08A899B8901969B8B8A8BBC
:1009400081E089A3F3CFDF91CF911F91FF90EF90CA
:10095000089581E00895FC01848995890895FC013A
:10096000828993890895FC0180899189089580E0A6
:100970000895FC01738362830895FC018281938151
:100980000895FC01868597850895FC018185089569
:10099000FC0180850895FC0187810895FC01868112
:1009A0000895FC01409595854923642B658708953A
:1009B000FC0164870895FC0163870895FC01628748
:1009C0000895FC0164830895FC01658308958F9266
:1009D0009F92AF92BF92CF92DF92EF92FF92CF930E
:1009E000DF93EC016B010E94C7014B015C01E12C1C
:1009F000F12C0E94C701DC01CB0188199909AA09D1
:100A0000BB098C159D05AE05BF0530F48A819B811D
:100A1000039779F381E001C080E0DF91CF91FF90EF
:100A2000EF90DF90CF90BF90AF909F908F90089500
:100A3000FC012281338123303105D1F381E0089517
:100A40008F929F92AF92BF92CF92DF92EF92FF92DE
:100A5000CF93DF93EC016B010E94C7014B015C0156
:100A6000E12CF12C0E94C701DC01CB018819990906
:100A7000AA09BB098C159D05AE05BF0550F4E88198
:100A8000F9810280F381E02DCE010995882351F38D
:100A900001C080E0DF91CF91FF90EF90DF90CF9089
:100AA000BF90AF909F908F900895CF93DF93EC010C
:100AB000E881F9810280F381E02DCE010995882338
:100AC000B9F3DF91CF910895009769F0FC0101908F
:100AD0000020E9F73197AF01481B590BBC0184E9AD
:100AE00091E00C94D30180E090E008950E944B0BBC
:100AF000DF92EF92FF920F931F93CF93DF93EC015E
:100B00007B018A01E881F9810280F381E02D09955A
:100B1000D82E8823D1F0E114F104B1F001151105AC
:100B200099F0FE01E359FF4F80818750F8019081D1
:100B3000891708F48083F801408150E0BE01625DAE
:100B40007F4FC7010E94500B19A28D2DDF91CF91CD
:100B50001F910F91FF90EF90DF9008954F925F9259
:100B60006F927F92AF92BF92CF92DF92EF92FF92FD
:100B70001F93CF93DF9300D0CDB7DEB77C01909366
:100B800087018093860161E0FC01848D0E942C0125
:100B900060E0F701838D0E942C0161E0F701858DF3
:100BA0000E942C01C7010E941401F701C18CD28C54
:100BB000C114D10409F45BC0E12CF12C83E0CC0C0E
:100BC000DD1CEE1CFF1C8A95D1F79AE6A92E90E059
:100BD000B92E11E0412C24E2522E24EF622E712C0A
:100BE00042E050E0B501CE0101960E94D90A298168
:100BF0003A8140E050E0C301B2010E94140BCA01E7
:100C0000B901A70196010E94140BDA01C9010297EC
:100C1000A109B1098D3F9F4FA105B10538F01F5FB4
:100C200062E0A60EB11C1730D9F603C01630F9F0F9
:100C30000BC02230310541055105C8F021153105A1
:100C400081E04807510598F41092800088E0809375
:100C5000810080918100182B1093810030938900CE
:100C60002093880080916F00826080936F0081E004
:100C70000F900F90DF91CF911F91FF90EF90DF9039
:100C8000CF90BF90AF907F906F905F904F900895FE
:100C90008F929F92AF92BF92CF92DF92EF92FF928C
:100CA000CF93DF93FC012789308D232BB9F1EC0121
:100CB0000E94C7014B015C0189E0C82ED12CE12CB8
:100CC000F12CE881F9810488F589E02DCE010995A0
:100CD000882321F10E94C701AB01BC0148195909C1
:100CE0006A097B098F89988DA0E0B0E08417950789
:100CF000A607B707A8F00E94820AA70196010E94E2
:100D0000E20A9B01AC012F5F3F4F4F4F5F4FA4E6BC
:100D1000B0E00E94010B0E948D01D3CF81E001C0A1
:100D200080E0DF91CF91FF90EF90DF90CF90BF9068
:100D3000AF909F908F9008951F920F920FB60F92D1
:100D400011242F933F938F939F93AF93BF938091E1
:100D50008C0190918D01A0918E01B0918F01309105
:100D60008B0123E0230F2D3720F40196A11DB11D27
:100D700005C026E8230F0296A11DB11D20938B010B
:100D800080938C0190938D01A0938E01B0938F017D
:100D90008091900190919101A0919201B091930165
:100DA0000196A11DB11D8093900190939101A09394
:100DB0009201B0939301BF91AF919F918F913F9119
:100DC0002F910F900FBE0F901F9018951F920F92AA
:100DD0000FB60F9211242F933F934F935F936F930E
:100DE0007F938F939F93AF93BF93EF93FF9384E988
:100DF00091E00E944802FF91EF91BF91AF919F91C6
:100E00008F917F916F915F914F913F912F910F90B3
:100E10000FBE0F901F9018951F920F920FB60F9252
:100E200011242F938F939F93EF93FF93E091A4014D
:100E3000F091A5018081E091AA01F091AB0182FDC2
:100E400012C090818091AD018F5F8F732091AE01B0
:100E5000821751F0E091AD01F0E0EC56FE4F958F16
:100E60008093AD0101C08081FF91EF919F918F919F
:100E70002F910F900FBE0F901F9018951F920F92F9
:100E80000FB60F921124CF92DF92EF92FF920F9341
:100E90001F932F933F934F935F936F937F938F9302
:100EA0009F93AF93BF93CF93DF93EF93FF93C09143
:100EB0008601D09187018A819B81049709F0ADC09A
:100EC0008B8D0E94BC0021E0892B09F420E08E8DDF
:100ED000822719F09BA19F5F9BA39AA1981759F0B5
:100EE0009CA1903510F09DE101C09BE02CA1920FD8
:100EF0009CA38AA303C08CA18C5E8CA38CA1803A96
:100F000008F4DCC08EA19FA1969587959FA38EA320
:100F10008BA1853028F08EA19FA198609FA38EA3FE
:100F20008CA1805A8CA31BA28DA1882309F468C0D0
:100F300088A58F5F88A78C3008F4C0C08EA19FA1C0
:100F4000982F9F73892F86958695887028E0280FA3
:100F5000281749F0E82FF0E0E45FFE4F3081931747
:100F600019F08F5FF5CF80E020E1829FC00111244E
:100F70002EA13FA196E0369527959A95E1F7422F4D
:100F80003695279536952795287038E0320F231728
:100F900049F0E22FF0E0E45FFE4F5081451719F071
:100FA0002F5FF5CF20E0822BAE0143595F4FFA014E
:100FB0009081DE01A459BF4F9923B1F0FA019081CD
:100FC00021E0290F20839E01290F311DF90181A7FE
:100FD000FA0190818C91981788F01DA281E088A376
:100FE000CE010E9414010AC08C939C91973008F4A2
:100FF0005FC09C91943408F05BC0E0CF18A65EC03F
:101000008EA19FA188339B4009F058C081E08DA339
:1010100018A6C359DF4F188251C08A819B8103975C
:1010200009F04CC08E0100591F4FF801808191E0FA
:10103000980F9083811136C06E01FEE6CF0ED11C51
:10104000F6018081EF56FF4F9081891748F0CE015D
:101050000E9414018C899D8901969D8B8C8B22C0E6
:10106000FE01E80FF11DEF58FF4F608170E07E0137
:10107000FFE6EF0EF11CF701808191E0980F90835D
:1010800002C0759567958A95E2F761708C8D0E9414
:10109000E500F7018081863028F01082F60180811A
:1010A0008F5F8083F8018081883040F0108206C015
:1010B0001DA2888999890196998B888BFF91EF9160
:1010C000DF91CF91BF91AF919F918F917F916F9160
:1010D0005F914F913F912F911F910F91FF90EF9052
:1010E000DF90CF900F900FBE0F901F901895CF9369
:1010F000DF93CDB7DEB728970FB6F894DEBF0FBEEB
:10110000CDBFE4E9F1E01382128288EE93E0A0E023
:10111000B0E084839583A683B78380E291E09183D6
:10112000808385EC90E09587848784EC90E09787B6
:10113000868780EC90E0918B808B81EC90E0938BA4
:10114000828B82EC90E0958B848B86EC90E0978B81
:10115000868B118E128E138E148EE1E3F2E01382D1
:1011600012828FEF84838287838714861586118A83
:10117000108A138A128A158A148A108E178A82E3BB
:1011800091E09183808380ED97E0928F818F8BE057
:10119000838F8CE0848F8AE0858F168E178E88E08F
:1011A000E4E0F1E0DE01119601900D928A95E1F7FD
:1011B00088E0FE013196A2EAB2E001900D928A9594
:1011C000E1F728960FB6F894DEBF0FBECDBFDF91D2
:1011D000CF910895CF93DF93CDB7DEB7A1970FB628
:1011E000F894DEBF0FBECDBF789484B5826084BD15
:1011F00084B5816084BD85B5826085BD85B581601B
:1012000085BD80916E00816080936E001092810098
:101210008091810082608093810080918100816053
:101220008093810080918000816080938000809114
:10123000B10084608093B1008091B00081608093A0
:10124000B00080917A00846080937A0080917A0067
:10125000826080937A0080917A00816080937A0026
:1012600080917A00806880937A001092C100E091AA
:10127000A401F091A50182E08083E091A001F091AA
:10128000A1011082E091A201F091A3018FEC808373
:101290001092AC01E091A801F091A90186E0808351
:1012A000E091A601F091A701808180618083E091A7
:1012B000A601F091A701808188608083E091A6015A
:1012C000F091A701808180688083E091A601F09170
:1012D000A70180818F7D808381E392E00E94AE052B
:1012E000811108C08AE691E00E94640586E791E0DA
:1012F0000E94640561E08DE00E942C0160E085E0C1
:101300000E942C0161E082E00E942C0160E083E1F8
:101310000E942C0185E4B82E9AE0C92ED12CE12C34
:10132000F12C85E00E94BC00019709F088C08091F3
:101330008A01811184C061E082E00E94E50068EECC
:1013400073E080E090E00E948D0181E080938A014B
:10135000B0927C0080917A00806480937A008091C2
:101360007A0086FDFCCF809178002091790090E092
:10137000922B90938901809388012C01092E000CF7
:101380006608770897FF20C06DE284E991E00E942B
:101390006A0222273327A90124193509460957096A
:1013A00019A28E010F5D1F4FCA01B901A701960155
:1013B0000E94140B605DF80162938F0121153105C5
:1013C0004105510589F715C0A301920119A28E01AB
:1013D0000F5D1F4FCA01B901A70196010E94140BAE
:1013E000605DF80162938F012115310541055105BA
:1013F00089F7C8010E94640586E791E00E946405B0
:10140000809188019091890185369105ACF4809195
:101410008A01882389F04CE069E771E081E392E07A
:101420000E94040381E392E00E94180568EE73E0D5
:1014300080E090E00E948D010E94D90272CF85E089
:101440000E94BC00019709F083CF80918A01882314
:1014500009F47ECF10928A0160E082E00E94E500EC
:1014600068EE73E080E090E00E948D0171CF8F9272
:101470009F92AF92BF92CF92DF92EF92FF92CF9363
:10148000DF93EC01688179818A819B816115710507
:101490008105910521F464E279ED8BE597E02DE17A
:1014A00033EF41E050E00E94E20A49015A019B01FA
:1014B000AC01A7EAB1E40E94010B6B017C01ACEE28
:1014C000B4EFA50194010E940F0BDC01CB018C0D40
:1014D0009D1DAE1DBF1DB7FF03C00197A109B048F8
:1014E00088839983AA83BB83BC01CD019F77DF9159
:1014F000CF91FF90EF90DF90CF90BF90AF909F90F3
:101500008F9008958F929F92AF92BF92CF92DF9269
:10151000EF92FF92609100017091010180910201B0
:1015200090910301611571058105910521F464E233
:1015300079ED8BE597E02DE133EF41E050E00E943B
:10154000E20A49015A019B01AC01A7EAB1E40E94F9
:10155000010B6B017C01ACEEB4EFA50194010E947C
:101560000F0BDC01CB018C0D9D1DAE1DBF1DB7FF08
:1015700003C00197A109B048809300019093010135
:10158000A0930201B0930301BC01CD019F77FF90AE
:10159000EF90DF90CF90BF90AF909F908F90089585
:1015A0006093000170930101809302019093030105
:1015B0000895FB01DC0102C005900D92415050409E
:1015C000D8F70895052E97FB1EF400940E94F90A9F
:1015D00057FD07D00E94140B07FC03D04EF40C9467
:1015E000F90A50954095309521953F4F4F4F5F4FE9
:1015F000089590958095709561957F4F8F4F9F4F7F
:1016000008950E94360BA59F900DB49F900DA49F46
:10161000800D911D11240895B7FF0C94010B0E94B9
:10162000010B821B930B0895A1E21A2EAA1BBB1B70
:10163000FD010DC0AA1FBB1FEE1FFF1FA217B3079E
:10164000E407F50720F0A21BB30BE40BF50B661FB4
:10165000771F881F991F1A9469F760957095809578
:1016600090959B01AC01BD01CF010895A29FB001EF
:10167000B39FC001A39F700D811D1124911DB29FC6
:10168000700D811D1124911D0895EE0FFF1F05900F
:10169000F491E02D099481E090E0F8940C94590BBA
:1016A000FB01DC0102C001900D9241505040D8F77F
:0616B0000895F894FFCF3D
:1016B600010000002A2A2A2A2A2A382C0D0E131580
:1016C60016191A1C232526292A2C3234000000005C
:1016D6006A02D3010102B70232021002240200009C
:1016E6000000AE05470478050403020355051805F6
:1016F600E70420054806B704E104DE04DB04D80449
:10170600D104E404CE04CB04C804C504C104BD045A
:10171600B904B704B304AF04AB04696E69742066F8
:1017260061696C6564000D0A0048656C6C6F205732
:061736006F726C642100DB
:00000001FF
